{
  "_format": "hh-sol-artifact-1",
  "contractName": "zKhorus",
  "sourceName": "contracts/zKhorus.sol",
  "abi": [
    {
      "inputs": [
        {
          "internalType": "address",
          "name": "_semaphoreAddress",
          "type": "address"
        }
      ],
      "stateMutability": "nonpayable",
      "type": "constructor"
    },
    {
      "inputs": [],
      "name": "_groupId",
      "outputs": [
        {
          "internalType": "uint256",
          "name": "",
          "type": "uint256"
        }
      ],
      "stateMutability": "view",
      "type": "function"
    },
    {
      "inputs": [],
      "name": "_memberCount",
      "outputs": [
        {
          "internalType": "uint256",
          "name": "",
          "type": "uint256"
        }
      ],
      "stateMutability": "view",
      "type": "function"
    },
    {
      "inputs": [],
      "name": "_proposalId",
      "outputs": [
        {
          "internalType": "uint256",
          "name": "",
          "type": "uint256"
        }
      ],
      "stateMutability": "view",
      "type": "function"
    },
    {
      "inputs": [
        {
          "internalType": "string",
          "name": "title",
          "type": "string"
        },
        {
          "internalType": "uint256",
          "name": "timeEnd",
          "type": "uint256"
        },
        {
          "internalType": "uint256",
          "name": "depth",
          "type": "uint256"
        },
        {
          "internalType": "uint256",
          "name": "regtime",
          "type": "uint256"
        },
        {
          "internalType": "uint256",
          "name": "groupId",
          "type": "uint256"
        }
      ],
      "name": "addProposal",
      "outputs": [],
      "stateMutability": "nonpayable",
      "type": "function"
    },
    {
      "inputs": [],
      "name": "checkRegistered",
      "outputs": [
        {
          "internalType": "bool",
          "name": "",
          "type": "bool"
        }
      ],
      "stateMutability": "view",
      "type": "function"
    },
    {
      "inputs": [
        {
          "internalType": "uint256",
          "name": "",
          "type": "uint256"
        }
      ],
      "name": "completed",
      "outputs": [
        {
          "internalType": "bool",
          "name": "",
          "type": "bool"
        }
      ],
      "stateMutability": "view",
      "type": "function"
    },
    {
      "inputs": [
        {
          "internalType": "uint256",
          "name": "",
          "type": "uint256"
        }
      ],
      "name": "identityCommitments",
      "outputs": [
        {
          "internalType": "uint256",
          "name": "",
          "type": "uint256"
        }
      ],
      "stateMutability": "view",
      "type": "function"
    },
    {
      "inputs": [],
      "name": "identityList",
      "outputs": [
        {
          "internalType": "uint256[]",
          "name": "",
          "type": "uint256[]"
        }
      ],
      "stateMutability": "view",
      "type": "function"
    },
    {
      "inputs": [
        {
          "internalType": "uint256[]",
          "name": "identityCommitments",
          "type": "uint256[]"
        }
      ],
      "name": "joinProposal",
      "outputs": [],
      "stateMutability": "nonpayable",
      "type": "function"
    },
    {
      "inputs": [
        {
          "internalType": "uint256",
          "name": "",
          "type": "uint256"
        }
      ],
      "name": "members",
      "outputs": [
        {
          "internalType": "uint256",
          "name": "member_id",
          "type": "uint256"
        },
        {
          "internalType": "address",
          "name": "member_address",
          "type": "address"
        },
        {
          "internalType": "uint256",
          "name": "time_joined",
          "type": "uint256"
        }
      ],
      "stateMutability": "view",
      "type": "function"
    },
    {
      "inputs": [
        {
          "internalType": "uint256",
          "name": "",
          "type": "uint256"
        }
      ],
      "name": "propGroupId",
      "outputs": [
        {
          "internalType": "uint256",
          "name": "",
          "type": "uint256"
        }
      ],
      "stateMutability": "view",
      "type": "function"
    },
    {
      "inputs": [],
      "name": "proposalList",
      "outputs": [
        {
          "components": [
            {
              "internalType": "uint256",
              "name": "proposalId",
              "type": "uint256"
            },
            {
              "internalType": "string",
              "name": "title",
              "type": "string"
            },
            {
              "internalType": "address",
              "name": "initiator",
              "type": "address"
            },
            {
              "internalType": "uint256",
              "name": "forVotes",
              "type": "uint256"
            },
            {
              "internalType": "uint256",
              "name": "againstVotes",
              "type": "uint256"
            },
            {
              "internalType": "uint256",
              "name": "forPercentage",
              "type": "uint256"
            },
            {
              "internalType": "uint256",
              "name": "againstPercentage",
              "type": "uint256"
            },
            {
              "internalType": "bool",
              "name": "status",
              "type": "bool"
            },
            {
              "internalType": "uint256",
              "name": "timeInitiated",
              "type": "uint256"
            },
            {
              "internalType": "uint256",
              "name": "totalVotes",
              "type": "uint256"
            },
            {
              "internalType": "uint256",
              "name": "tillTime",
              "type": "uint256"
            },
            {
              "internalType": "uint256",
              "name": "regtime",
              "type": "uint256"
            }
          ],
          "internalType": "struct zKhorus.Proposals[]",
          "name": "",
          "type": "tuple[]"
        }
      ],
      "stateMutability": "view",
      "type": "function"
    },
    {
      "inputs": [
        {
          "internalType": "uint256",
          "name": "",
          "type": "uint256"
        }
      ],
      "name": "proposals",
      "outputs": [
        {
          "internalType": "uint256",
          "name": "proposalId",
          "type": "uint256"
        },
        {
          "internalType": "string",
          "name": "title",
          "type": "string"
        },
        {
          "internalType": "address",
          "name": "initiator",
          "type": "address"
        },
        {
          "internalType": "uint256",
          "name": "forVotes",
          "type": "uint256"
        },
        {
          "internalType": "uint256",
          "name": "againstVotes",
          "type": "uint256"
        },
        {
          "internalType": "uint256",
          "name": "forPercentage",
          "type": "uint256"
        },
        {
          "internalType": "uint256",
          "name": "againstPercentage",
          "type": "uint256"
        },
        {
          "internalType": "bool",
          "name": "status",
          "type": "bool"
        },
        {
          "internalType": "uint256",
          "name": "timeInitiated",
          "type": "uint256"
        },
        {
          "internalType": "uint256",
          "name": "totalVotes",
          "type": "uint256"
        },
        {
          "internalType": "uint256",
          "name": "tillTime",
          "type": "uint256"
        },
        {
          "internalType": "uint256",
          "name": "regtime",
          "type": "uint256"
        }
      ],
      "stateMutability": "view",
      "type": "function"
    },
    {
      "inputs": [
        {
          "internalType": "uint256",
          "name": "identityCommitment",
          "type": "uint256"
        }
      ],
      "name": "register",
      "outputs": [],
      "stateMutability": "nonpayable",
      "type": "function"
    },
    {
      "inputs": [
        {
          "internalType": "address",
          "name": "",
          "type": "address"
        }
      ],
      "name": "registered",
      "outputs": [
        {
          "internalType": "bool",
          "name": "",
          "type": "bool"
        }
      ],
      "stateMutability": "view",
      "type": "function"
    },
    {
      "inputs": [],
      "name": "semaphoreAddress",
      "outputs": [
        {
          "internalType": "address",
          "name": "",
          "type": "address"
        }
      ],
      "stateMutability": "view",
      "type": "function"
    },
    {
      "inputs": [],
      "name": "statusProposals",
      "outputs": [],
      "stateMutability": "payable",
      "type": "function"
    },
    {
      "inputs": [
        {
          "internalType": "uint256",
          "name": "proposalId",
          "type": "uint256"
        },
        {
          "internalType": "uint256",
          "name": "vote",
          "type": "uint256"
        },
        {
          "internalType": "uint256",
          "name": "merkleTreeRoot",
          "type": "uint256"
        },
        {
          "internalType": "uint256",
          "name": "nullifierHash",
          "type": "uint256"
        },
        {
          "internalType": "uint256",
          "name": "externalNullifier",
          "type": "uint256"
        },
        {
          "internalType": "uint256",
          "name": "groupId",
          "type": "uint256"
        },
        {
          "internalType": "uint256[8]",
          "name": "proof",
          "type": "uint256[8]"
        }
      ],
      "name": "voteOnproposal",
      "outputs": [],
      "stateMutability": "nonpayable",
      "type": "function"
    }
  ],
  "bytecode": "0x6080604052600060025560006003553480156200001b57600080fd5b5060405162002290380380620022908339818101604052810190620000419190620000a0565b80600960006101000a81548173ffffffffffffffffffffffffffffffffffffffff021916908373ffffffffffffffffffffffffffffffffffffffff160217905550506200011a565b6000815190506200009a8162000100565b92915050565b600060208284031215620000b357600080fd5b6000620000c38482850162000089565b91505092915050565b6000620000d982620000e0565b9050919050565b600073ffffffffffffffffffffffffffffffffffffffff82169050919050565b6200010b81620000cc565b81146200011757600080fd5b50565b612166806200012a6000396000f3fe6080604052600436106101095760003560e01c8063b2dd5c0711610095578063f12fe41511610064578063f12fe4151461039e578063f207564e146103db578063f4a22f2a14610404578063f7da2ac91461040e578063fdbccb861461043957610109565b8063b2dd5c07146102d2578063bf06a1871461030f578063c0cca5ef14610338578063c83e2ca81461037557610109565b806347f51364116100dc57806347f51364146101d75780635b01fb39146102025780635daf08ca1461022d578063820edc511461026c5780638fd0de571461029557610109565b8063013cf08b1461010e5780630c568e06146101565780632453abda1461018157806344389524146101ac575b600080fd5b34801561011a57600080fd5b50610135600480360381019061013091906115fd565b610464565b60405161014d9c9b9a99989796959493929190611c07565b60405180910390f35b34801561016257600080fd5b5061016b610589565b6040516101789190611b83565b60405180910390f35b34801561018d57600080fd5b5061019661058f565b6040516101a39190611b83565b60405180910390f35b3480156101b857600080fd5b506101c1610595565b6040516101ce9190611aa4565b60405180910390f35b3480156101e357600080fd5b506101ec610752565b6040516101f99190611ac6565b60405180910390f35b34801561020e57600080fd5b506102176107aa565b6040516102249190611ae8565b60405180910390f35b34801561023957600080fd5b50610254600480360381019061024f91906115fd565b6107fe565b60405161026393929190611b9e565b60405180910390f35b34801561027857600080fd5b50610293600480360381019061028e9190611529565b610858565b005b3480156102a157600080fd5b506102bc60048036038101906102b791906115fd565b610982565b6040516102c99190611b83565b60405180910390f35b3480156102de57600080fd5b506102f960048036038101906102f49190611500565b6109a6565b6040516103069190611ae8565b60405180910390f35b34801561031b57600080fd5b5061033660048036038101906103319190611626565b6109c6565b005b34801561034457600080fd5b5061035f600480360381019061035a91906115fd565b610ca2565b60405161036c9190611ae8565b60405180910390f35b34801561038157600080fd5b5061039c6004803603810190610397919061156e565b610cc2565b005b3480156103aa57600080fd5b506103c560048036038101906103c091906115fd565b610fa7565b6040516103d29190611b83565b60405180910390f35b3480156103e757600080fd5b5061040260048036038101906103fd91906115fd565b610fbf565b005b61040c6111a9565b005b34801561041a57600080fd5b50610423611337565b6040516104309190611a89565b60405180910390f35b34801561044557600080fd5b5061044e61135d565b60405161045b9190611b83565b60405180910390f35b6001818154811061047457600080fd5b90600052602060002090600c020160009150905080600001549080600101805461049d90611f14565b80601f01602080910402602001604051908101604052809291908181526020018280546104c990611f14565b80156105165780601f106104eb57610100808354040283529160200191610516565b820191906000526020600020905b8154815290600101906020018083116104f957829003601f168201915b5050505050908060020160009054906101000a900473ffffffffffffffffffffffffffffffffffffffff16908060030154908060040154908060050154908060060154908060070160009054906101000a900460ff169080600801549080600901549080600a01549080600b015490508c565b60045481565b60025481565b60606001805480602002602001604051908101604052809291908181526020016000905b8282101561074957838290600052602060002090600c020160405180610180016040529081600082015481526020016001820180546105f790611f14565b80601f016020809104026020016040519081016040528092919081815260200182805461062390611f14565b80156106705780601f1061064557610100808354040283529160200191610670565b820191906000526020600020905b81548152906001019060200180831161065357829003601f168201915b505050505081526020016002820160009054906101000a900473ffffffffffffffffffffffffffffffffffffffff1673ffffffffffffffffffffffffffffffffffffffff1673ffffffffffffffffffffffffffffffffffffffff168152602001600382015481526020016004820154815260200160058201548152602001600682015481526020016007820160009054906101000a900460ff161515151581526020016008820154815260200160098201548152602001600a8201548152602001600b82015481525050815260200190600101906105b9565b50505050905090565b606060088054806020026020016040519081016040528092919081815260200182805480156107a057602002820191906000526020600020905b81548152602001906001019080831161078c575b5050505050905090565b6000600560003373ffffffffffffffffffffffffffffffffffffffff1673ffffffffffffffffffffffffffffffffffffffff16815260200190815260200160002060009054906101000a900460ff16905090565b6000818154811061080e57600080fd5b90600052602060002090600302016000915090508060000154908060010160009054906101000a900473ffffffffffffffffffffffffffffffffffffffff16908060020154905083565b60011515600560003373ffffffffffffffffffffffffffffffffffffffff1673ffffffffffffffffffffffffffffffffffffffff16815260200190815260200160002060009054906101000a900460ff161515146108eb576040517f08c379a00000000000000000000000000000000000000000000000000000000081526004016108e290611b63565b60405180910390fd5b600960009054906101000a900473ffffffffffffffffffffffffffffffffffffffff1673ffffffffffffffffffffffffffffffffffffffff16630424537160045484846040518463ffffffff1660e01b815260040161094c93929190611bd5565b600060405180830381600087803b15801561096657600080fd5b505af115801561097a573d6000803e3d6000fd5b505050505050565b6008818154811061099257600080fd5b906000526020600020016000915090505481565b60056020528060005260406000206000915054906101000a900460ff1681565b6001151560018881548110610a04577f4e487b7100000000000000000000000000000000000000000000000000000000600052603260045260246000fd5b90600052602060002090600c020160070160009054906101000a900460ff16151514610a65576040517f08c379a0000000000000000000000000000000000000000000000000000000008152600401610a5c90611b23565b60405180910390fd5b6001861415610b355760018781548110610aa8577f4e487b7100000000000000000000000000000000000000000000000000000000600052603260045260246000fd5b90600052602060002090600c02016003016000815480929190610aca90611f77565b919050555060018781548110610b09577f4e487b7100000000000000000000000000000000000000000000000000000000600052603260045260246000fd5b90600052602060002090600c02016009016000815480929190610b2b90611f77565b9190505550610c02565b6000861415610c015760018781548110610b78577f4e487b7100000000000000000000000000000000000000000000000000000000600052603260045260246000fd5b90600052602060002090600c02016004016000815480929190610b9a90611f77565b919050555060018781548110610bd9577f4e487b7100000000000000000000000000000000000000000000000000000000600052603260045260246000fd5b90600052602060002090600c02016009016000815480929190610bfb90611f77565b91905055505b5b600960009054906101000a900473ffffffffffffffffffffffffffffffffffffffff1673ffffffffffffffffffffffffffffffffffffffff16633bc778e38387898888876040518763ffffffff1660e01b8152600401610c6796959493929190611cff565b600060405180830381600087803b158015610c8157600080fd5b505af1158015610c95573d6000803e3d6000fd5b5050505050505050505050565b60066020528060005260406000206000915054906101000a900460ff1681565b60011515600560003373ffffffffffffffffffffffffffffffffffffffff1673ffffffffffffffffffffffffffffffffffffffff16815260200190815260200160002060009054906101000a900460ff16151514610d55576040517f08c379a0000000000000000000000000000000000000000000000000000000008152600401610d4c90611b03565b60405180910390fd5b60026000815480929190610d6890611f77565b9190505550806004819055508060076000600254815260200190815260200160002081905550600160405180610180016040528060025481526020018781526020013373ffffffffffffffffffffffffffffffffffffffff16815260200160008152602001600081526020016000815260200160008152602001600115158152602001428152602001600081526020018681526020018481525090806001815401808255809150506001900390600052602060002090600c0201600090919091909150600082015181600001556020820151816001019080519060200190610e51929190611363565b5060408201518160020160006101000a81548173ffffffffffffffffffffffffffffffffffffffff021916908373ffffffffffffffffffffffffffffffffffffffff160217905550606082015181600301556080820151816004015560a0820151816005015560c0820151816006015560e08201518160070160006101000a81548160ff0219169083151502179055506101008201518160080155610120820151816009015561014082015181600a015561016082015181600b01555050600960009054906101000a900473ffffffffffffffffffffffffffffffffffffffff1673ffffffffffffffffffffffffffffffffffffffff16639c1121418285306040518463ffffffff1660e01b8152600401610f6e93929190611cc8565b600060405180830381600087803b158015610f8857600080fd5b505af1158015610f9c573d6000803e3d6000fd5b505050505050505050565b60076020528060005260406000206000915090505481565b60001515600560003373ffffffffffffffffffffffffffffffffffffffff1673ffffffffffffffffffffffffffffffffffffffff16815260200190815260200160002060009054906101000a900460ff16151514611052576040517f08c379a000000000000000000000000000000000000000000000000000000000815260040161104990611b43565b60405180910390fd5b6003600081548092919061106590611f77565b91905055506000604051806060016040528060035481526020013373ffffffffffffffffffffffffffffffffffffffff1681526020014281525090806001815401808255809150506001900390600052602060002090600302016000909190919091506000820151816000015560208201518160010160006101000a81548173ffffffffffffffffffffffffffffffffffffffff021916908373ffffffffffffffffffffffffffffffffffffffff1602179055506040820151816002015550506001600560003373ffffffffffffffffffffffffffffffffffffffff1673ffffffffffffffffffffffffffffffffffffffff16815260200190815260200160002060006101000a81548160ff021916908315150217905550600881908060018154018082558091505060019003906000526020600020016000909190919091505550565b60005b60025481101561133457600181815481106111f0577f4e487b7100000000000000000000000000000000000000000000000000000000600052603260045260246000fd5b90600052602060002090600c0201600a01546001828154811061123c577f4e487b7100000000000000000000000000000000000000000000000000000000600052603260045260246000fd5b90600052602060002090600c020160080154426112599190611e56565b1015801561128b5750600015156006600083815260200190815260200160002060009054906101000a900460ff161515145b156113215760016006600083815260200190815260200160002060006101000a81548160ff0219169083151502179055506000600182815481106112f8577f4e487b7100000000000000000000000000000000000000000000000000000000600052603260045260246000fd5b90600052602060002090600c020160070160006101000a81548160ff0219169083151502179055505b808061132c90611f77565b9150506111ac565b50565b600960009054906101000a900473ffffffffffffffffffffffffffffffffffffffff1681565b60035481565b82805461136f90611f14565b90600052602060002090601f01602090048101928261139157600085556113d8565b82601f106113aa57805160ff19168380011785556113d8565b828001600101855582156113d8579182015b828111156113d75782518255916020019190600101906113bc565b5b5090506113e591906113e9565b5090565b5b808211156114025760008160009055506001016113ea565b5090565b600061141961141484611d86565b611d61565b90508281526020810184848401111561143157600080fd5b61143c848285611ed2565b509392505050565b60008135905061145381612102565b92915050565b60008190508260206008028201111561147157600080fd5b92915050565b60008083601f84011261148957600080fd5b8235905067ffffffffffffffff8111156114a257600080fd5b6020830191508360208202830111156114ba57600080fd5b9250929050565b600082601f8301126114d257600080fd5b81356114e2848260208601611406565b91505092915050565b6000813590506114fa81612119565b92915050565b60006020828403121561151257600080fd5b600061152084828501611444565b91505092915050565b6000806020838503121561153c57600080fd5b600083013567ffffffffffffffff81111561155657600080fd5b61156285828601611477565b92509250509250929050565b600080600080600060a0868803121561158657600080fd5b600086013567ffffffffffffffff8111156115a057600080fd5b6115ac888289016114c1565b95505060206115bd888289016114eb565b94505060406115ce888289016114eb565b93505060606115df888289016114eb565b92505060806115f0888289016114eb565b9150509295509295909350565b60006020828403121561160f57600080fd5b600061161d848285016114eb565b91505092915050565b60008060008060008060006101c0888a03121561164257600080fd5b60006116508a828b016114eb565b97505060206116618a828b016114eb565b96505060406116728a828b016114eb565b95505060606116838a828b016114eb565b94505060806116948a828b016114eb565b93505060a06116a58a828b016114eb565b92505060c06116b68a828b01611459565b91505092959891949750929550565b60006116d18383611967565b905092915050565b60006116e58383611a6b565b60208301905092915050565b6116fa81611e8a565b82525050565b61170981611e8a565b82525050565b600061171a82611dd7565b6117248185611e12565b93508360208202850161173685611db7565b8060005b85811015611772578484038952815161175385826116c5565b945061175e83611df8565b925060208a0199505060018101905061173a565b50829750879550505050505092915050565b6117916101008383611ed2565b5050565b60006117a18385611e23565b93507f07ffffffffffffffffffffffffffffffffffffffffffffffffffffffffffffff8311156117d057600080fd5b6020830292506117e1838584611ed2565b82840190509392505050565b60006117f882611de2565b6118028185611e23565b935061180d83611dc7565b8060005b8381101561183e57815161182588826116d9565b975061183083611e05565b925050600181019050611811565b5085935050505092915050565b61185481611e9c565b82525050565b61186381611e9c565b82525050565b600061187482611ded565b61187e8185611e34565b935061188e818560208601611ee1565b6118978161204d565b840191505092915050565b60006118ad82611ded565b6118b78185611e45565b93506118c7818560208601611ee1565b6118d08161204d565b840191505092915050565b60006118e8600e83611e45565b91506118f38261205e565b602082019050919050565b600061190b600a83611e45565b915061191682612087565b602082019050919050565b600061192e601283611e45565b9150611939826120b0565b602082019050919050565b6000611951600c83611e45565b915061195c826120d9565b602082019050919050565b6000610180830160008301516119806000860182611a6b565b50602083015184820360208601526119988282611869565b91505060408301516119ad60408601826116f1565b5060608301516119c06060860182611a6b565b5060808301516119d36080860182611a6b565b5060a08301516119e660a0860182611a6b565b5060c08301516119f960c0860182611a6b565b5060e0830151611a0c60e086018261184b565b50610100830151611a21610100860182611a6b565b50610120830151611a36610120860182611a6b565b50610140830151611a4b610140860182611a6b565b50610160830151611a60610160860182611a6b565b508091505092915050565b611a7481611ec8565b82525050565b611a8381611ec8565b82525050565b6000602082019050611a9e6000830184611700565b92915050565b60006020820190508181036000830152611abe818461170f565b905092915050565b60006020820190508181036000830152611ae081846117ed565b905092915050565b6000602082019050611afd600083018461185a565b92915050565b60006020820190508181036000830152611b1c816118db565b9050919050565b60006020820190508181036000830152611b3c816118fe565b9050919050565b60006020820190508181036000830152611b5c81611921565b9050919050565b60006020820190508181036000830152611b7c81611944565b9050919050565b6000602082019050611b986000830184611a7a565b92915050565b6000606082019050611bb36000830186611a7a565b611bc06020830185611700565b611bcd6040830184611a7a565b949350505050565b6000604082019050611bea6000830186611a7a565b8181036020830152611bfd818486611795565b9050949350505050565b600061018082019050611c1d600083018f611a7a565b8181036020830152611c2f818e6118a2565b9050611c3e604083018d611700565b611c4b606083018c611a7a565b611c58608083018b611a7a565b611c6560a083018a611a7a565b611c7260c0830189611a7a565b611c7f60e083018861185a565b611c8d610100830187611a7a565b611c9b610120830186611a7a565b611ca9610140830185611a7a565b611cb7610160830184611a7a565b9d9c50505050505050505050505050565b6000606082019050611cdd6000830186611a7a565b611cea6020830185611a7a565b611cf76040830184611700565b949350505050565b60006101a082019050611d156000830189611a7a565b611d226020830188611a7a565b611d2f6040830187611a7a565b611d3c6060830186611a7a565b611d496080830185611a7a565b611d5660a0830184611784565b979650505050505050565b6000611d6b611d7c565b9050611d778282611f46565b919050565b6000604051905090565b600067ffffffffffffffff821115611da157611da061201e565b5b611daa8261204d565b9050602081019050919050565b6000819050602082019050919050565b6000819050602082019050919050565b600081519050919050565b600081519050919050565b600081519050919050565b6000602082019050919050565b6000602082019050919050565b600082825260208201905092915050565b600082825260208201905092915050565b600082825260208201905092915050565b600082825260208201905092915050565b6000611e6182611ec8565b9150611e6c83611ec8565b925082821015611e7f57611e7e611fc0565b5b828203905092915050565b6000611e9582611ea8565b9050919050565b60008115159050919050565b600073ffffffffffffffffffffffffffffffffffffffff82169050919050565b6000819050919050565b82818337600083830152505050565b60005b83811015611eff578082015181840152602081019050611ee4565b83811115611f0e576000848401525b50505050565b60006002820490506001821680611f2c57607f821691505b60208210811415611f4057611f3f611fef565b5b50919050565b611f4f8261204d565b810181811067ffffffffffffffff82111715611f6e57611f6d61201e565b5b80604052505050565b6000611f8282611ec8565b91507fffffffffffffffffffffffffffffffffffffffffffffffffffffffffffffffff821415611fb557611fb4611fc0565b5b600182019050919050565b7f4e487b7100000000000000000000000000000000000000000000000000000000600052601160045260246000fd5b7f4e487b7100000000000000000000000000000000000000000000000000000000600052602260045260246000fd5b7f4e487b7100000000000000000000000000000000000000000000000000000000600052604160045260246000fd5b6000601f19601f8301169050919050565b7f4e6f742072656769737465726564000000000000000000000000000000000000600082015250565b7f4e6f742041637469766500000000000000000000000000000000000000000000600082015250565b7f416c726561647920526567697374657265640000000000000000000000000000600082015250565b7f4e6f742061206d656d6265720000000000000000000000000000000000000000600082015250565b61210b81611e8a565b811461211657600080fd5b50565b61212281611ec8565b811461212d57600080fd5b5056fea264697066735822122095b80ce6400df09d17475974114f5e3f3e620fa8460f02ef8ecd77765aa9737364736f6c63430008040033",
  "linkReferences": {},
  "deployedLinkReferences": {}
}