{
  "_format": "hh-sol-artifact-1",
  "contractName": "zKhorus",
  "sourceName": "contracts/zKhorus.sol",
  "abi": [
    {
      "inputs": [
        {
          "internalType": "address",
          "name": "_semaphoreAddress",
          "type": "address"
        }
      ],
      "stateMutability": "nonpayable",
      "type": "constructor"
    },
    {
      "inputs": [],
      "name": "_groupId",
      "outputs": [
        {
          "internalType": "uint256",
          "name": "",
          "type": "uint256"
        }
      ],
      "stateMutability": "view",
      "type": "function"
    },
    {
      "inputs": [],
      "name": "_memberCount",
      "outputs": [
        {
          "internalType": "uint256",
          "name": "",
          "type": "uint256"
        }
      ],
      "stateMutability": "view",
      "type": "function"
    },
    {
      "inputs": [],
      "name": "_proposalId",
      "outputs": [
        {
          "internalType": "uint256",
          "name": "",
          "type": "uint256"
        }
      ],
      "stateMutability": "view",
      "type": "function"
    },
    {
      "inputs": [
        {
          "internalType": "string",
          "name": "title",
          "type": "string"
        },
        {
          "internalType": "uint256",
          "name": "timeEnd",
          "type": "uint256"
        },
        {
          "internalType": "uint256",
          "name": "depth",
          "type": "uint256"
        },
        {
          "internalType": "uint256",
          "name": "regtime",
          "type": "uint256"
        },
        {
          "internalType": "uint256",
          "name": "groupId",
          "type": "uint256"
        }
      ],
      "name": "addProposal",
      "outputs": [],
      "stateMutability": "nonpayable",
      "type": "function"
    },
    {
      "inputs": [
        {
          "internalType": "string",
          "name": "",
          "type": "string"
        }
      ],
      "name": "candidateName",
      "outputs": [
        {
          "internalType": "uint256",
          "name": "",
          "type": "uint256"
        }
      ],
      "stateMutability": "view",
      "type": "function"
    },
    {
      "inputs": [],
      "name": "checkRegistered",
      "outputs": [
        {
          "internalType": "bool",
          "name": "",
          "type": "bool"
        }
      ],
      "stateMutability": "view",
      "type": "function"
    },
    {
      "inputs": [
        {
          "internalType": "uint256",
          "name": "",
          "type": "uint256"
        }
      ],
      "name": "completed",
      "outputs": [
        {
          "internalType": "bool",
          "name": "",
          "type": "bool"
        }
      ],
      "stateMutability": "view",
      "type": "function"
    },
    {
      "inputs": [
        {
          "internalType": "uint256",
          "name": "",
          "type": "uint256"
        }
      ],
      "name": "identityCommitments",
      "outputs": [
        {
          "internalType": "uint256",
          "name": "",
          "type": "uint256"
        }
      ],
      "stateMutability": "view",
      "type": "function"
    },
    {
      "inputs": [],
      "name": "identityList",
      "outputs": [
        {
          "internalType": "uint256[]",
          "name": "",
          "type": "uint256[]"
        }
      ],
      "stateMutability": "view",
      "type": "function"
    },
    {
      "inputs": [
        {
          "internalType": "uint256[]",
          "name": "identityCommitments",
          "type": "uint256[]"
        }
      ],
      "name": "joinProposal",
      "outputs": [],
      "stateMutability": "nonpayable",
      "type": "function"
    },
    {
      "inputs": [
        {
          "internalType": "uint256",
          "name": "",
          "type": "uint256"
        }
      ],
      "name": "members",
      "outputs": [
        {
          "internalType": "uint256",
          "name": "member_id",
          "type": "uint256"
        },
        {
          "internalType": "address",
          "name": "member_address",
          "type": "address"
        },
        {
          "internalType": "uint256",
          "name": "time_joined",
          "type": "uint256"
        }
      ],
      "stateMutability": "view",
      "type": "function"
    },
    {
      "inputs": [
        {
          "internalType": "uint256",
          "name": "",
          "type": "uint256"
        }
      ],
      "name": "propGroupId",
      "outputs": [
        {
          "internalType": "uint256",
          "name": "",
          "type": "uint256"
        }
      ],
      "stateMutability": "view",
      "type": "function"
    },
    {
      "inputs": [],
      "name": "proposalList",
      "outputs": [
        {
          "components": [
            {
              "internalType": "uint256",
              "name": "proposalId",
              "type": "uint256"
            },
            {
              "internalType": "string",
              "name": "title",
              "type": "string"
            },
            {
              "internalType": "address",
              "name": "initiator",
              "type": "address"
            },
            {
              "internalType": "uint256",
              "name": "forVotes",
              "type": "uint256"
            },
            {
              "internalType": "uint256",
              "name": "againstVotes",
              "type": "uint256"
            },
            {
              "internalType": "uint256",
              "name": "forPercentage",
              "type": "uint256"
            },
            {
              "internalType": "uint256",
              "name": "againstPercentage",
              "type": "uint256"
            },
            {
              "internalType": "bool",
              "name": "status",
              "type": "bool"
            },
            {
              "internalType": "uint256",
              "name": "timeInitiated",
              "type": "uint256"
            },
            {
              "internalType": "uint256",
              "name": "totalVotes",
              "type": "uint256"
            },
            {
              "internalType": "uint256",
              "name": "tillTime",
              "type": "uint256"
            },
            {
              "internalType": "uint256",
              "name": "regtime",
              "type": "uint256"
            }
          ],
          "internalType": "struct zKhorus.Proposals[]",
          "name": "",
          "type": "tuple[]"
        }
      ],
      "stateMutability": "view",
      "type": "function"
    },
    {
      "inputs": [
        {
          "internalType": "uint256",
          "name": "",
          "type": "uint256"
        }
      ],
      "name": "proposals",
      "outputs": [
        {
          "internalType": "uint256",
          "name": "proposalId",
          "type": "uint256"
        },
        {
          "internalType": "string",
          "name": "title",
          "type": "string"
        },
        {
          "internalType": "address",
          "name": "initiator",
          "type": "address"
        },
        {
          "internalType": "uint256",
          "name": "forVotes",
          "type": "uint256"
        },
        {
          "internalType": "uint256",
          "name": "againstVotes",
          "type": "uint256"
        },
        {
          "internalType": "uint256",
          "name": "forPercentage",
          "type": "uint256"
        },
        {
          "internalType": "uint256",
          "name": "againstPercentage",
          "type": "uint256"
        },
        {
          "internalType": "bool",
          "name": "status",
          "type": "bool"
        },
        {
          "internalType": "uint256",
          "name": "timeInitiated",
          "type": "uint256"
        },
        {
          "internalType": "uint256",
          "name": "totalVotes",
          "type": "uint256"
        },
        {
          "internalType": "uint256",
          "name": "tillTime",
          "type": "uint256"
        },
        {
          "internalType": "uint256",
          "name": "regtime",
          "type": "uint256"
        }
      ],
      "stateMutability": "view",
      "type": "function"
    },
    {
      "inputs": [
        {
          "internalType": "uint256",
          "name": "identityCommitment",
          "type": "uint256"
        }
      ],
      "name": "register",
      "outputs": [],
      "stateMutability": "nonpayable",
      "type": "function"
    },
    {
      "inputs": [
        {
          "internalType": "address",
          "name": "",
          "type": "address"
        }
      ],
      "name": "registered",
      "outputs": [
        {
          "internalType": "bool",
          "name": "",
          "type": "bool"
        }
      ],
      "stateMutability": "view",
      "type": "function"
    },
    {
      "inputs": [],
      "name": "semaphoreAddress",
      "outputs": [
        {
          "internalType": "address",
          "name": "",
          "type": "address"
        }
      ],
      "stateMutability": "view",
      "type": "function"
    },
    {
      "inputs": [],
      "name": "statusProposals",
      "outputs": [],
      "stateMutability": "payable",
      "type": "function"
    },
    {
      "inputs": [],
      "name": "ver",
      "outputs": [
        {
          "internalType": "uint256",
          "name": "",
          "type": "uint256"
        }
      ],
      "stateMutability": "view",
      "type": "function"
    },
    {
      "inputs": [
        {
          "internalType": "uint256",
          "name": "proposalId",
          "type": "uint256"
        },
        {
          "internalType": "string",
          "name": "name",
          "type": "string"
        },
        {
          "internalType": "uint256",
          "name": "vote",
          "type": "uint256"
        },
        {
          "internalType": "uint256",
          "name": "merkleTreeRoot",
          "type": "uint256"
        },
        {
          "internalType": "uint256",
          "name": "nullifierHash",
          "type": "uint256"
        },
        {
          "internalType": "uint256",
          "name": "externalNullifier",
          "type": "uint256"
        },
        {
          "internalType": "uint256",
          "name": "groupId",
          "type": "uint256"
        },
        {
          "internalType": "uint256[8]",
          "name": "proof",
          "type": "uint256[8]"
        }
      ],
      "name": "voteOnproposal",
      "outputs": [],
      "stateMutability": "nonpayable",
      "type": "function"
    }
  ],
  "bytecode": "0x60806040526000600255600060035560026005553480156200002057600080fd5b50604051620029b4380380620029b483398181016040528101906200004691906200020d565b80600b60006101000a81548173ffffffffffffffffffffffffffffffffffffffff021916908373ffffffffffffffffffffffffffffffffffffffff160217905550600060096040516200009990620003ed565b90815260200160405180910390208190555060006009604051620000bd90620003d6565b90815260200160405180910390208190555060006009604051620000e1906200048e565b90815260200160405180910390208190555060006009604051620001059062000404565b90815260200160405180910390208190555060006009604051620001299062000460565b908152602001604051809103902081905550600060096040516200014d90620003bf565b90815260200160405180910390208190555060006009604051620001719062000449565b9081526020016040518091039020819055506000600960405162000195906200041b565b90815260200160405180910390208190555060006009604051620001b99062000477565b90815260200160405180910390208190555060006009604051620001dd9062000432565b9081526020016040518091039020819055505062000698565b60008151905062000207816200067e565b92915050565b6000602082840312156200022057600080fd5b60006200023084828501620001f6565b91505092915050565b600062000248601983620004a5565b91506200025582620004e4565b601982019050919050565b60006200026f600783620004a5565b91506200027c826200050d565b600782019050919050565b600062000296600883620004a5565b9150620002a38262000536565b600882019050919050565b6000620002bd600d83620004a5565b9150620002ca826200055f565b600d82019050919050565b6000620002e4600f83620004a5565b9150620002f18262000588565b600f82019050919050565b60006200030b600a83620004a5565b91506200031882620005b1565b600a82019050919050565b600062000332600a83620004a5565b91506200033f82620005da565b600a82019050919050565b600062000359600c83620004a5565b9150620003668262000603565b600c82019050919050565b600062000380600683620004a5565b91506200038d826200062c565b600682019050919050565b6000620003a7601083620004a5565b9150620003b48262000655565b601082019050919050565b6000620003cc8262000239565b9150819050919050565b6000620003e38262000260565b9150819050919050565b6000620003fa8262000287565b9150819050919050565b60006200041182620002ae565b9150819050919050565b60006200042882620002d5565b9150819050919050565b60006200043f82620002fc565b9150819050919050565b6000620004568262000323565b9150819050919050565b60006200046d826200034a565b9150819050919050565b6000620004848262000371565b9150819050919050565b60006200049b8262000398565b9150819050919050565b600081905092915050565b6000620004bd82620004c4565b9050919050565b600073ffffffffffffffffffffffffffffffffffffffff82169050919050565b7f4e69766564697461204c616b73686d696e61726179616e616e00000000000000600082015250565b7f61616b7269746900000000000000000000000000000000000000000000000000600082015250565b7f4a686579616e7468000000000000000000000000000000000000000000000000600082015250565b7f47756e6a616e61205361686f6f00000000000000000000000000000000000000600082015250565b7f4d6f68616d6d65642046617268616e0000000000000000000000000000000000600082015250565b7f537572697468204c204700000000000000000000000000000000000000000000600082015250565b7f5372656563686172616e00000000000000000000000000000000000000000000600082015250565b7f532e4e6968616172696b68610000000000000000000000000000000000000000600082015250565b7f50756e6565740000000000000000000000000000000000000000000000000000600082015250565b7f56696b72616e7468204a61676469736800000000000000000000000000000000600082015250565b6200068981620004b0565b81146200069557600080fd5b50565b61230c80620006a86000396000f3fe60806040526004361061011f5760003560e01c8063a400efd8116100a0578063f12fe41511610064578063f12fe4151461041c578063f207564e14610459578063f4a22f2a14610482578063f7da2ac91461048c578063fdbccb86146104b75761011f565b8063a400efd814610313578063b2dd5c071461033c578063c0cca5ef14610379578063c83e2ca8146103b6578063e5a0aa2c146103df5761011f565b80635b01fb39116100e75780635b01fb39146102185780635daf08ca1461024357806365c43cc714610282578063820edc51146102ad5780638fd0de57146102d65761011f565b8063013cf08b146101245780630c568e061461016c5780632453abda1461019757806344389524146101c257806347f51364146101ed575b600080fd5b34801561013057600080fd5b5061014b60048036038101906101469190611725565b6104e2565b6040516101639c9b9a99989796959493929190611da2565b60405180910390f35b34801561017857600080fd5b50610181610607565b60405161018e9190611d1e565b60405180910390f35b3480156101a357600080fd5b506101ac61060d565b6040516101b99190611d1e565b60405180910390f35b3480156101ce57600080fd5b506101d7610613565b6040516101e49190611c3f565b60405180910390f35b3480156101f957600080fd5b506102026107d0565b60405161020f9190611c61565b60405180910390f35b34801561022457600080fd5b5061022d610828565b60405161023a9190611c83565b60405180910390f35b34801561024f57600080fd5b5061026a60048036038101906102659190611725565b61087c565b60405161027993929190611d39565b60405180910390f35b34801561028e57600080fd5b506102976108d6565b6040516102a49190611d1e565b60405180910390f35b3480156102b957600080fd5b506102d460048036038101906102cf9190611610565b6108dc565b005b3480156102e257600080fd5b506102fd60048036038101906102f89190611725565b610a06565b60405161030a9190611d1e565b60405180910390f35b34801561031f57600080fd5b5061033a6004803603810190610335919061174e565b610a2a565b005b34801561034857600080fd5b50610363600480360381019061035e91906115e7565b610d3b565b6040516103709190611c83565b60405180910390f35b34801561038557600080fd5b506103a0600480360381019061039b9190611725565b610d5b565b6040516103ad9190611c83565b60405180910390f35b3480156103c257600080fd5b506103dd60048036038101906103d89190611696565b610d7b565b005b3480156103eb57600080fd5b5061040660048036038101906104019190611655565b611060565b6040516104139190611d1e565b60405180910390f35b34801561042857600080fd5b50610443600480360381019061043e9190611725565b61108e565b6040516104509190611d1e565b60405180910390f35b34801561046557600080fd5b50610480600480360381019061047b9190611725565b6110a6565b005b61048a611290565b005b34801561049857600080fd5b506104a161141e565b6040516104ae9190611c24565b60405180910390f35b3480156104c357600080fd5b506104cc611444565b6040516104d99190611d1e565b60405180910390f35b600181815481106104f257600080fd5b90600052602060002090600c020160009150905080600001549080600101805461051b906120ba565b80601f0160208091040260200160405190810160405280929190818152602001828054610547906120ba565b80156105945780601f1061056957610100808354040283529160200191610594565b820191906000526020600020905b81548152906001019060200180831161057757829003601f168201915b5050505050908060020160009054906101000a900473ffffffffffffffffffffffffffffffffffffffff16908060030154908060040154908060050154908060060154908060070160009054906101000a900460ff169080600801549080600901549080600a01549080600b015490508c565b60045481565b60025481565b60606001805480602002602001604051908101604052809291908181526020016000905b828210156107c757838290600052602060002090600c02016040518061018001604052908160008201548152602001600182018054610675906120ba565b80601f01602080910402602001604051908101604052809291908181526020018280546106a1906120ba565b80156106ee5780601f106106c3576101008083540402835291602001916106ee565b820191906000526020600020905b8154815290600101906020018083116106d157829003601f168201915b505050505081526020016002820160009054906101000a900473ffffffffffffffffffffffffffffffffffffffff1673ffffffffffffffffffffffffffffffffffffffff1673ffffffffffffffffffffffffffffffffffffffff168152602001600382015481526020016004820154815260200160058201548152602001600682015481526020016007820160009054906101000a900460ff161515151581526020016008820154815260200160098201548152602001600a8201548152602001600b8201548152505081526020019060010190610637565b50505050905090565b6060600a80548060200260200160405190810160405280929190818152602001828054801561081e57602002820191906000526020600020905b81548152602001906001019080831161080a575b5050505050905090565b6000600660003373ffffffffffffffffffffffffffffffffffffffff1673ffffffffffffffffffffffffffffffffffffffff16815260200190815260200160002060009054906101000a900460ff16905090565b6000818154811061088c57600080fd5b90600052602060002090600302016000915090508060000154908060010160009054906101000a900473ffffffffffffffffffffffffffffffffffffffff16908060020154905083565b60055481565b60011515600660003373ffffffffffffffffffffffffffffffffffffffff1673ffffffffffffffffffffffffffffffffffffffff16815260200190815260200160002060009054906101000a900460ff1615151461096f576040517f08c379a000000000000000000000000000000000000000000000000000000000815260040161096690611cfe565b60405180910390fd5b600b60009054906101000a900473ffffffffffffffffffffffffffffffffffffffff1673ffffffffffffffffffffffffffffffffffffffff16630424537160045484846040518463ffffffff1660e01b81526004016109d093929190611d70565b600060405180830381600087803b1580156109ea57600080fd5b505af11580156109fe573d6000803e3d6000fd5b505050505050565b600a8181548110610a1657600080fd5b906000526020600020016000915090505481565b6001151560018981548110610a68577f4e487b7100000000000000000000000000000000000000000000000000000000600052603260045260246000fd5b90600052602060002090600c020160070160009054906101000a900460ff16151514610ac9576040517f08c379a0000000000000000000000000000000000000000000000000000000008152600401610ac090611cbe565b60405180910390fd5b6001861415610bcd5760018881548110610b0c577f4e487b7100000000000000000000000000000000000000000000000000000000600052603260045260246000fd5b90600052602060002090600c02016003016000815480929190610b2e9061211d565b919050555060018881548110610b6d577f4e487b7100000000000000000000000000000000000000000000000000000000600052603260045260246000fd5b90600052602060002090600c02016009016000815480929190610b8f9061211d565b9190505550600987604051610ba49190611c0d565b90815260200160405180910390206000815480929190610bc39061211d565b9190505550610c9a565b6000861415610c995760018881548110610c10577f4e487b7100000000000000000000000000000000000000000000000000000000600052603260045260246000fd5b90600052602060002090600c02016004016000815480929190610c329061211d565b919050555060018881548110610c71577f4e487b7100000000000000000000000000000000000000000000000000000000600052603260045260246000fd5b90600052602060002090600c02016009016000815480929190610c939061211d565b91905055505b5b600b60009054906101000a900473ffffffffffffffffffffffffffffffffffffffff1673ffffffffffffffffffffffffffffffffffffffff16633bc778e38387898888876040518763ffffffff1660e01b8152600401610cff96959493929190611e9a565b600060405180830381600087803b158015610d1957600080fd5b505af1158015610d2d573d6000803e3d6000fd5b505050505050505050505050565b60066020528060005260406000206000915054906101000a900460ff1681565b60076020528060005260406000206000915054906101000a900460ff1681565b60011515600660003373ffffffffffffffffffffffffffffffffffffffff1673ffffffffffffffffffffffffffffffffffffffff16815260200190815260200160002060009054906101000a900460ff16151514610e0e576040517f08c379a0000000000000000000000000000000000000000000000000000000008152600401610e0590611c9e565b60405180910390fd5b60026000815480929190610e219061211d565b9190505550806004819055508060086000600254815260200190815260200160002081905550600160405180610180016040528060025481526020018781526020013373ffffffffffffffffffffffffffffffffffffffff16815260200160008152602001600081526020016000815260200160008152602001600115158152602001428152602001600081526020018681526020018481525090806001815401808255809150506001900390600052602060002090600c0201600090919091909150600082015181600001556020820151816001019080519060200190610f0a92919061144a565b5060408201518160020160006101000a81548173ffffffffffffffffffffffffffffffffffffffff021916908373ffffffffffffffffffffffffffffffffffffffff160217905550606082015181600301556080820151816004015560a0820151816005015560c0820151816006015560e08201518160070160006101000a81548160ff0219169083151502179055506101008201518160080155610120820151816009015561014082015181600a015561016082015181600b01555050600b60009054906101000a900473ffffffffffffffffffffffffffffffffffffffff1673ffffffffffffffffffffffffffffffffffffffff16639c1121418285306040518463ffffffff1660e01b815260040161102793929190611e63565b600060405180830381600087803b15801561104157600080fd5b505af1158015611055573d6000803e3d6000fd5b505050505050505050565b6009818051602081018201805184825260208301602085012081835280955050505050506000915090505481565b60086020528060005260406000206000915090505481565b60001515600660003373ffffffffffffffffffffffffffffffffffffffff1673ffffffffffffffffffffffffffffffffffffffff16815260200190815260200160002060009054906101000a900460ff16151514611139576040517f08c379a000000000000000000000000000000000000000000000000000000000815260040161113090611cde565b60405180910390fd5b6003600081548092919061114c9061211d565b91905055506000604051806060016040528060035481526020013373ffffffffffffffffffffffffffffffffffffffff1681526020014281525090806001815401808255809150506001900390600052602060002090600302016000909190919091506000820151816000015560208201518160010160006101000a81548173ffffffffffffffffffffffffffffffffffffffff021916908373ffffffffffffffffffffffffffffffffffffffff1602179055506040820151816002015550506001600660003373ffffffffffffffffffffffffffffffffffffffff1673ffffffffffffffffffffffffffffffffffffffff16815260200190815260200160002060006101000a81548160ff021916908315150217905550600a81908060018154018082558091505060019003906000526020600020016000909190919091505550565b60005b60025481101561141b57600181815481106112d7577f4e487b7100000000000000000000000000000000000000000000000000000000600052603260045260246000fd5b90600052602060002090600c0201600a015460018281548110611323577f4e487b7100000000000000000000000000000000000000000000000000000000600052603260045260246000fd5b90600052602060002090600c020160080154426113409190611ffc565b101580156113725750600015156007600083815260200190815260200160002060009054906101000a900460ff161515145b156114085760016007600083815260200190815260200160002060006101000a81548160ff0219169083151502179055506000600182815481106113df577f4e487b7100000000000000000000000000000000000000000000000000000000600052603260045260246000fd5b90600052602060002090600c020160070160006101000a81548160ff0219169083151502179055505b80806114139061211d565b915050611293565b50565b600b60009054906101000a900473ffffffffffffffffffffffffffffffffffffffff1681565b60035481565b828054611456906120ba565b90600052602060002090601f01602090048101928261147857600085556114bf565b82601f1061149157805160ff19168380011785556114bf565b828001600101855582156114bf579182015b828111156114be5782518255916020019190600101906114a3565b5b5090506114cc91906114d0565b5090565b5b808211156114e95760008160009055506001016114d1565b5090565b60006115006114fb84611f21565b611efc565b90508281526020810184848401111561151857600080fd5b611523848285612078565b509392505050565b60008135905061153a816122a8565b92915050565b60008190508260206008028201111561155857600080fd5b92915050565b60008083601f84011261157057600080fd5b8235905067ffffffffffffffff81111561158957600080fd5b6020830191508360208202830111156115a157600080fd5b9250929050565b600082601f8301126115b957600080fd5b81356115c98482602086016114ed565b91505092915050565b6000813590506115e1816122bf565b92915050565b6000602082840312156115f957600080fd5b60006116078482850161152b565b91505092915050565b6000806020838503121561162357600080fd5b600083013567ffffffffffffffff81111561163d57600080fd5b6116498582860161155e565b92509250509250929050565b60006020828403121561166757600080fd5b600082013567ffffffffffffffff81111561168157600080fd5b61168d848285016115a8565b91505092915050565b600080600080600060a086880312156116ae57600080fd5b600086013567ffffffffffffffff8111156116c857600080fd5b6116d4888289016115a8565b95505060206116e5888289016115d2565b94505060406116f6888289016115d2565b9350506060611707888289016115d2565b9250506080611718888289016115d2565b9150509295509295909350565b60006020828403121561173757600080fd5b6000611745848285016115d2565b91505092915050565b6000806000806000806000806101e0898b03121561176b57600080fd5b60006117798b828c016115d2565b985050602089013567ffffffffffffffff81111561179657600080fd5b6117a28b828c016115a8565b97505060406117b38b828c016115d2565b96505060606117c48b828c016115d2565b95505060806117d58b828c016115d2565b94505060a06117e68b828c016115d2565b93505060c06117f78b828c016115d2565b92505060e06118088b828c01611540565b9150509295985092959890939650565b60006118248383611aeb565b905092915050565b60006118388383611bef565b60208301905092915050565b61184d81612030565b82525050565b61185c81612030565b82525050565b600061186d82611f72565b6118778185611fad565b93508360208202850161188985611f52565b8060005b858110156118c557848403895281516118a68582611818565b94506118b183611f93565b925060208a0199505060018101905061188d565b50829750879550505050505092915050565b6118e46101008383612078565b5050565b60006118f48385611fbe565b93507f07ffffffffffffffffffffffffffffffffffffffffffffffffffffffffffffff83111561192357600080fd5b602083029250611934838584612078565b82840190509392505050565b600061194b82611f7d565b6119558185611fbe565b935061196083611f62565b8060005b83811015611991578151611978888261182c565b975061198383611fa0565b925050600181019050611964565b5085935050505092915050565b6119a781612042565b82525050565b6119b681612042565b82525050565b60006119c782611f88565b6119d18185611fcf565b93506119e1818560208601612087565b6119ea816121f3565b840191505092915050565b6000611a0082611f88565b611a0a8185611fe0565b9350611a1a818560208601612087565b611a23816121f3565b840191505092915050565b6000611a3982611f88565b611a438185611ff1565b9350611a53818560208601612087565b80840191505092915050565b6000611a6c600e83611fe0565b9150611a7782612204565b602082019050919050565b6000611a8f600a83611fe0565b9150611a9a8261222d565b602082019050919050565b6000611ab2601283611fe0565b9150611abd82612256565b602082019050919050565b6000611ad5600c83611fe0565b9150611ae08261227f565b602082019050919050565b600061018083016000830151611b046000860182611bef565b5060208301518482036020860152611b1c82826119bc565b9150506040830151611b316040860182611844565b506060830151611b446060860182611bef565b506080830151611b576080860182611bef565b5060a0830151611b6a60a0860182611bef565b5060c0830151611b7d60c0860182611bef565b5060e0830151611b9060e086018261199e565b50610100830151611ba5610100860182611bef565b50610120830151611bba610120860182611bef565b50610140830151611bcf610140860182611bef565b50610160830151611be4610160860182611bef565b508091505092915050565b611bf88161206e565b82525050565b611c078161206e565b82525050565b6000611c198284611a2e565b915081905092915050565b6000602082019050611c396000830184611853565b92915050565b60006020820190508181036000830152611c598184611862565b905092915050565b60006020820190508181036000830152611c7b8184611940565b905092915050565b6000602082019050611c9860008301846119ad565b92915050565b60006020820190508181036000830152611cb781611a5f565b9050919050565b60006020820190508181036000830152611cd781611a82565b9050919050565b60006020820190508181036000830152611cf781611aa5565b9050919050565b60006020820190508181036000830152611d1781611ac8565b9050919050565b6000602082019050611d336000830184611bfe565b92915050565b6000606082019050611d4e6000830186611bfe565b611d5b6020830185611853565b611d686040830184611bfe565b949350505050565b6000604082019050611d856000830186611bfe565b8181036020830152611d988184866118e8565b9050949350505050565b600061018082019050611db8600083018f611bfe565b8181036020830152611dca818e6119f5565b9050611dd9604083018d611853565b611de6606083018c611bfe565b611df3608083018b611bfe565b611e0060a083018a611bfe565b611e0d60c0830189611bfe565b611e1a60e08301886119ad565b611e28610100830187611bfe565b611e36610120830186611bfe565b611e44610140830185611bfe565b611e52610160830184611bfe565b9d9c50505050505050505050505050565b6000606082019050611e786000830186611bfe565b611e856020830185611bfe565b611e926040830184611853565b949350505050565b60006101a082019050611eb06000830189611bfe565b611ebd6020830188611bfe565b611eca6040830187611bfe565b611ed76060830186611bfe565b611ee46080830185611bfe565b611ef160a08301846118d7565b979650505050505050565b6000611f06611f17565b9050611f1282826120ec565b919050565b6000604051905090565b600067ffffffffffffffff821115611f3c57611f3b6121c4565b5b611f45826121f3565b9050602081019050919050565b6000819050602082019050919050565b6000819050602082019050919050565b600081519050919050565b600081519050919050565b600081519050919050565b6000602082019050919050565b6000602082019050919050565b600082825260208201905092915050565b600082825260208201905092915050565b600082825260208201905092915050565b600082825260208201905092915050565b600081905092915050565b60006120078261206e565b91506120128361206e565b92508282101561202557612024612166565b5b828203905092915050565b600061203b8261204e565b9050919050565b60008115159050919050565b600073ffffffffffffffffffffffffffffffffffffffff82169050919050565b6000819050919050565b82818337600083830152505050565b60005b838110156120a557808201518184015260208101905061208a565b838111156120b4576000848401525b50505050565b600060028204905060018216806120d257607f821691505b602082108114156120e6576120e5612195565b5b50919050565b6120f5826121f3565b810181811067ffffffffffffffff82111715612114576121136121c4565b5b80604052505050565b60006121288261206e565b91507fffffffffffffffffffffffffffffffffffffffffffffffffffffffffffffffff82141561215b5761215a612166565b5b600182019050919050565b7f4e487b7100000000000000000000000000000000000000000000000000000000600052601160045260246000fd5b7f4e487b7100000000000000000000000000000000000000000000000000000000600052602260045260246000fd5b7f4e487b7100000000000000000000000000000000000000000000000000000000600052604160045260246000fd5b6000601f19601f8301169050919050565b7f4e6f742072656769737465726564000000000000000000000000000000000000600082015250565b7f4e6f742041637469766500000000000000000000000000000000000000000000600082015250565b7f416c726561647920526567697374657265640000000000000000000000000000600082015250565b7f4e6f742061206d656d6265720000000000000000000000000000000000000000600082015250565b6122b181612030565b81146122bc57600080fd5b50565b6122c88161206e565b81146122d357600080fd5b5056fea264697066735822122084fc2739041fc773889d017902a9007f37b5f85753d0adc0aefa09d76199a17c64736f6c63430008040033",
  "linkReferences": {},
  "deployedLinkReferences": {}
}